{
  "contractName": "democraticElection",
  "abi": [
    {
      "inputs": [
        {
          "internalType": "address[]",
          "name": "_candidates",
          "type": "address[]"
        },
        {
          "internalType": "address",
          "name": "_escrow",
          "type": "address"
        },
        {
          "internalType": "uint32",
          "name": "_quorum",
          "type": "uint32"
        },
        {
          "internalType": "contract IERC20",
          "name": "_token",
          "type": "address"
        }
      ],
      "stateMutability": "nonpayable",
      "type": "constructor"
    },
    {
      "anonymous": false,
      "inputs": [
        {
          "indexed": false,
          "internalType": "address",
          "name": "_voter",
          "type": "address"
        }
      ],
      "name": "EnvelopeCast",
      "type": "event"
    },
    {
      "anonymous": false,
      "inputs": [
        {
          "indexed": false,
          "internalType": "address",
          "name": "_voter",
          "type": "address"
        },
        {
          "indexed": false,
          "internalType": "uint256",
          "name": "_soul",
          "type": "uint256"
        },
        {
          "indexed": false,
          "internalType": "address",
          "name": "_symbol",
          "type": "address"
        }
      ],
      "name": "EnvelopeOpen",
      "type": "event"
    },
    {
      "anonymous": false,
      "inputs": [
        {
          "indexed": false,
          "internalType": "address",
          "name": "_candidate",
          "type": "address"
        },
        {
          "indexed": false,
          "internalType": "uint256",
          "name": "_totalSoul",
          "type": "uint256"
        },
        {
          "indexed": false,
          "internalType": "uint256",
          "name": "_totalVotes",
          "type": "uint256"
        }
      ],
      "name": "NewMayor",
      "type": "event"
    },
    {
      "anonymous": false,
      "inputs": [
        {
          "indexed": false,
          "internalType": "address",
          "name": "_escrow",
          "type": "address"
        },
        {
          "indexed": false,
          "internalType": "uint256",
          "name": "_totalSoul",
          "type": "uint256"
        }
      ],
      "name": "Sayonara",
      "type": "event"
    },
    {
      "inputs": [
        {
          "internalType": "uint256",
          "name": "",
          "type": "uint256"
        }
      ],
      "name": "candidates",
      "outputs": [
        {
          "internalType": "address",
          "name": "",
          "type": "address"
        }
      ],
      "stateMutability": "view",
      "type": "function"
    },
    {
      "inputs": [],
      "name": "escrow",
      "outputs": [
        {
          "internalType": "address",
          "name": "",
          "type": "address"
        }
      ],
      "stateMutability": "view",
      "type": "function"
    },
    {
      "inputs": [
        {
          "internalType": "bytes32",
          "name": "_envelope",
          "type": "bytes32"
        }
      ],
      "name": "cast_envelope",
      "outputs": [],
      "stateMutability": "nonpayable",
      "type": "function"
    },
    {
      "inputs": [
        {
          "internalType": "uint256",
          "name": "_sigil",
          "type": "uint256"
        },
        {
          "internalType": "address",
          "name": "_symbol",
          "type": "address"
        },
        {
          "internalType": "uint256",
          "name": "_souls",
          "type": "uint256"
        }
      ],
      "name": "open_envelope",
      "outputs": [],
      "stateMutability": "nonpayable",
      "type": "function"
    },
    {
      "inputs": [],
      "name": "mayor_or_sayonara",
      "outputs": [],
      "stateMutability": "nonpayable",
      "type": "function"
    },
    {
      "inputs": [
        {
          "internalType": "uint256",
          "name": "_sigil",
          "type": "uint256"
        },
        {
          "internalType": "address",
          "name": "_symbol",
          "type": "address"
        },
        {
          "internalType": "uint256",
          "name": "_soul",
          "type": "uint256"
        }
      ],
      "name": "compute_envelope",
      "outputs": [
        {
          "internalType": "bytes32",
          "name": "",
          "type": "bytes32"
        }
      ],
      "stateMutability": "pure",
      "type": "function"
    }
  ],
  "bytecode": "0x60806040523480156200001157600080fd5b506040516200206038038062002060833981810160405281019062000037919062000434565b806000806101000a81548173ffffffffffffffffffffffffffffffffffffffff021916908373ffffffffffffffffffffffffffffffffffffffff16021790555083600190805190602001906200008f9291906200029f565b5082600260006101000a81548173ffffffffffffffffffffffffffffffffffffffff021916908373ffffffffffffffffffffffffffffffffffffffff16021790555060405180606001604052808363ffffffff168152602001600063ffffffff168152602001600063ffffffff16815250600460008201518160000160006101000a81548163ffffffff021916908363ffffffff16021790555060208201518160000160046101000a81548163ffffffff021916908363ffffffff16021790555060408201518160000160086101000a81548163ffffffff021916908363ffffffff16021790555090505060005b6001805490508110156200029457604051806040016040528060008152602001600081525060076000820151816000015560208201518160010155905050600060018281548110620001f8577f4e487b7100000000000000000000000000000000000000000000000000000000600052603260045260246000fd5b9060005260206000200160009054906101000a900473ffffffffffffffffffffffffffffffffffffffff1690506007600960008373ffffffffffffffffffffffffffffffffffffffff1673ffffffffffffffffffffffffffffffffffffffff16815260200190815260200160002060008201548160000155600182015481600101559050505080806200028b90620005a9565b9150506200017d565b5050505050620006b4565b8280548282559060005260206000209081019282156200031b579160200282015b828111156200031a5782518260006101000a81548173ffffffffffffffffffffffffffffffffffffffff021916908373ffffffffffffffffffffffffffffffffffffffff16021790555091602001919060010190620002c0565b5b5090506200032a91906200032e565b5090565b5b80821115620003495760008160009055506001016200032f565b5090565b6000620003646200035e84620004e2565b620004b9565b905080838252602082019050828560208602820111156200038457600080fd5b60005b85811015620003b857816200039d8882620003c2565b84526020840193506020830192505060018101905062000387565b5050509392505050565b600081519050620003d38162000666565b92915050565b600082601f830112620003eb57600080fd5b8151620003fd8482602086016200034d565b91505092915050565b600081519050620004178162000680565b92915050565b6000815190506200042e816200069a565b92915050565b600080600080608085870312156200044b57600080fd5b600085015167ffffffffffffffff8111156200046657600080fd5b6200047487828801620003d9565b94505060206200048787828801620003c2565b93505060406200049a878288016200041d565b9250506060620004ad8782880162000406565b91505092959194509250565b6000620004c5620004d8565b9050620004d3828262000573565b919050565b6000604051905090565b600067ffffffffffffffff8211156200050057620004ff62000626565b5b602082029050602081019050919050565b60006200051e8262000539565b9050919050565b6000620005328262000511565b9050919050565b600073ffffffffffffffffffffffffffffffffffffffff82169050919050565b6000819050919050565b600063ffffffff82169050919050565b6200057e8262000655565b810181811067ffffffffffffffff82111715620005a0576200059f62000626565b5b80604052505050565b6000620005b68262000559565b91507fffffffffffffffffffffffffffffffffffffffffffffffffffffffffffffffff821415620005ec57620005eb620005f7565b5b600182019050919050565b7f4e487b7100000000000000000000000000000000000000000000000000000000600052601160045260246000fd5b7f4e487b7100000000000000000000000000000000000000000000000000000000600052604160045260246000fd5b6000601f19601f8301169050919050565b620006718162000511565b81146200067d57600080fd5b50565b6200068b8162000525565b81146200069757600080fd5b50565b620006a58162000563565b8114620006b157600080fd5b50565b61199c80620006c46000396000f3fe608060405234801561001057600080fd5b50600436106100625760003560e01c806305698612146100675780631c9a34e3146100715780633477ee2e1461008d578063c586ff67146100bd578063d3ddf664146100ed578063e2fdcc1714610109575b600080fd5b61006f610127565b005b61008b600480360381019061008691906112b9565b610a4b565b005b6100a760048036038101906100a291906112e2565b610bd0565b6040516100b49190611436565b60405180910390f35b6100d760048036038101906100d2919061130b565b610c0f565b6040516100e4919061151f565b60405180910390f35b6101076004803603810190610102919061130b565b610c45565b005b610111611216565b60405161011e9190611436565b60405180910390f35b600460000160009054906101000a900463ffffffff1663ffffffff16600460000160089054906101000a900463ffffffff1663ffffffff161461019f576040517f08c379a0000000000000000000000000000000000000000000000000000000008152600401610196906115ba565b60405180910390fd5b6000806000806000805b6001805490508110156104f4576000600182815481106101f2577f4e487b7100000000000000000000000000000000000000000000000000000000600052603260045260246000fd5b9060005260206000200160009054906101000a900473ffffffffffffffffffffffffffffffffffffffff169050600960008273ffffffffffffffffffffffffffffffffffffffff1673ffffffffffffffffffffffffffffffffffffffff168152602001908152602001600020600001548461026d9190611622565b935084600960008373ffffffffffffffffffffffffffffffffffffffff1673ffffffffffffffffffffffffffffffffffffffff16815260200190815260200160002060000154111561030657809650600960008273ffffffffffffffffffffffffffffffffffffffff1673ffffffffffffffffffffffffffffffffffffffff1681526020019081526020016000206000015494506104e0565b84600960008373ffffffffffffffffffffffffffffffffffffffff1673ffffffffffffffffffffffffffffffffffffffff1681526020019081526020016000206000015414156104df57600960008873ffffffffffffffffffffffffffffffffffffffff1673ffffffffffffffffffffffffffffffffffffffff16815260200190815260200160002060010154600960008373ffffffffffffffffffffffffffffffffffffffff1673ffffffffffffffffffffffffffffffffffffffff16815260200190815260200160002060010154111561044c5760018281548110610416577f4e487b7100000000000000000000000000000000000000000000000000000000600052603260045260246000fd5b9060005260206000200160009054906101000a900473ffffffffffffffffffffffffffffffffffffffff169650600092506104de565b600960008873ffffffffffffffffffffffffffffffffffffffff1673ffffffffffffffffffffffffffffffffffffffff16815260200190815260200160002060010154600960008373ffffffffffffffffffffffffffffffffffffffff1673ffffffffffffffffffffffffffffffffffffffff1681526020019081526020016000206001015414156104dd57600192505b5b5b5b5080806104ec906116da565b9150506101a9565b50806109185784935060005b600b80549050811015610853576000600b8281548110610549577f4e487b7100000000000000000000000000000000000000000000000000000000600052603260045260246000fd5b9060005260206000200160009054906101000a900473ffffffffffffffffffffffffffffffffffffffff1690508573ffffffffffffffffffffffffffffffffffffffff16600a60008373ffffffffffffffffffffffffffffffffffffffff1673ffffffffffffffffffffffffffffffffffffffff16815260200190815260200160002060010160009054906101000a900473ffffffffffffffffffffffffffffffffffffffff1673ffffffffffffffffffffffffffffffffffffffff161461074e576000600a60008373ffffffffffffffffffffffffffffffffffffffff1673ffffffffffffffffffffffffffffffffffffffff1681526020019081526020016000206000015490506000600a60008473ffffffffffffffffffffffffffffffffffffffff1673ffffffffffffffffffffffffffffffffffffffff1681526020019081526020016000206000018190555060008054906101000a900473ffffffffffffffffffffffffffffffffffffffff1673ffffffffffffffffffffffffffffffffffffffff1663a9059cbb83836040518363ffffffff1660e01b81526004016106f5929190611488565b602060405180830381600087803b15801561070f57600080fd5b505af1158015610723573d6000803e3d6000fd5b505050506040513d601f19601f820116820180604052508101906107479190611290565b505061083f565b60008054906101000a900473ffffffffffffffffffffffffffffffffffffffff1673ffffffffffffffffffffffffffffffffffffffff1663a9059cbb87600a60008573ffffffffffffffffffffffffffffffffffffffff1673ffffffffffffffffffffffffffffffffffffffff168152602001908152602001600020600001546040518363ffffffff1660e01b81526004016107eb929190611488565b602060405180830381600087803b15801561080557600080fd5b505af1158015610819573d6000803e3d6000fd5b505050506040513d601f19601f8201168201806040525081019061083d9190611290565b505b50808061084b906116da565b915050610500565b507f9011d84f3022dda618d91d8f1268b78b01dfeaa25a9ebb21a212eec05fb5b05d84600960008773ffffffffffffffffffffffffffffffffffffffff1673ffffffffffffffffffffffffffffffffffffffff16815260200190815260200160002060000154600960008873ffffffffffffffffffffffffffffffffffffffff1673ffffffffffffffffffffffffffffffffffffffff1681526020019081526020016000206001015460405161090b939291906114e8565b60405180910390a1610a44565b60008054906101000a900473ffffffffffffffffffffffffffffffffffffffff1673ffffffffffffffffffffffffffffffffffffffff1663a9059cbb600260009054906101000a900473ffffffffffffffffffffffffffffffffffffffff16846040518363ffffffff1660e01b8152600401610995929190611488565b602060405180830381600087803b1580156109af57600080fd5b505af11580156109c3573d6000803e3d6000fd5b505050506040513d601f19601f820116820180604052508101906109e79190611290565b507ff6951be0a26641492f6f914cdcf62c80844962ad7ac266c7fe175f06944655f1600260009054906101000a900473ffffffffffffffffffffffffffffffffffffffff1683604051610a3b929190611488565b60405180910390a15b5050505050565b600460000160009054906101000a900463ffffffff1663ffffffff16600460000160049054906101000a900463ffffffff1663ffffffff1610610ac3576040517f08c379a0000000000000000000000000000000000000000000000000000000008152600401610aba9061153a565b60405180910390fd5b6000801b600360003373ffffffffffffffffffffffffffffffffffffffff1673ffffffffffffffffffffffffffffffffffffffff168152602001908152602001600020541415610b52576004600001600481819054906101000a900463ffffffff1680929190610b3290611723565b91906101000a81548163ffffffff021916908363ffffffff160217905550505b80600360003373ffffffffffffffffffffffffffffffffffffffff1673ffffffffffffffffffffffffffffffffffffffff168152602001908152602001600020819055507f8033de21ae72f21fa8773c90e60e7a5188cb8e44b97f487a5c362a491882ae3433604051610bc59190611436565b60405180910390a150565b60018181548110610be057600080fd5b906000526020600020016000915054906101000a900473ffffffffffffffffffffffffffffffffffffffff1681565b6000838383604051602001610c26939291906115da565b6040516020818303038152906040528051906020012090509392505050565b600460000160009054906101000a900463ffffffff1663ffffffff16600460000160049054906101000a900463ffffffff1663ffffffff1614610cbd576040517f08c379a0000000000000000000000000000000000000000000000000000000008152600401610cb49061157a565b60405180910390fd5b6000801b600360003373ffffffffffffffffffffffffffffffffffffffff1673ffffffffffffffffffffffffffffffffffffffff168152602001908152602001600020541415610d42576040517f08c379a0000000000000000000000000000000000000000000000000000000008152600401610d399061159a565b60405180910390fd5b6000600360003373ffffffffffffffffffffffffffffffffffffffff1673ffffffffffffffffffffffffffffffffffffffff1681526020019081526020016000205490506000610d93858585610c0f565b9050808214610dd7576040517f08c379a0000000000000000000000000000000000000000000000000000000008152600401610dce9061155a565b60405180910390fd5b6000801b600360003373ffffffffffffffffffffffffffffffffffffffff1673ffffffffffffffffffffffffffffffffffffffff168152602001908152602001600020819055506004600001600881819054906101000a900463ffffffff1680929190610e4390611723565b91906101000a81548163ffffffff021916908363ffffffff1602179055505060008054906101000a900473ffffffffffffffffffffffffffffffffffffffff1673ffffffffffffffffffffffffffffffffffffffff166323b872dd3330866040518463ffffffff1660e01b8152600401610ebf93929190611451565b602060405180830381600087803b158015610ed957600080fd5b505af1158015610eed573d6000803e3d6000fd5b505050506040513d601f19601f82011682018060405250810190610f119190611290565b5060405180604001604052808481526020018573ffffffffffffffffffffffffffffffffffffffff1681525060056000820151816000015560208201518160010160006101000a81548173ffffffffffffffffffffffffffffffffffffffff021916908373ffffffffffffffffffffffffffffffffffffffff1602179055509050506005600a60003373ffffffffffffffffffffffffffffffffffffffff1673ffffffffffffffffffffffffffffffffffffffff168152602001908152602001600020600082015481600001556001820160009054906101000a900473ffffffffffffffffffffffffffffffffffffffff168160010160006101000a81548173ffffffffffffffffffffffffffffffffffffffff021916908373ffffffffffffffffffffffffffffffffffffffff160217905550905050600b339080600181540180825580915050600190039060005260206000200160009091909190916101000a81548173ffffffffffffffffffffffffffffffffffffffff021916908373ffffffffffffffffffffffffffffffffffffffff16021790555082600960008673ffffffffffffffffffffffffffffffffffffffff1673ffffffffffffffffffffffffffffffffffffffff168152602001908152602001600020600001546110f99190611622565b600960008673ffffffffffffffffffffffffffffffffffffffff1673ffffffffffffffffffffffffffffffffffffffff168152602001908152602001600020600001819055506001600960008673ffffffffffffffffffffffffffffffffffffffff1673ffffffffffffffffffffffffffffffffffffffff1681526020019081526020016000206001015461118e9190611622565b600960008673ffffffffffffffffffffffffffffffffffffffff1673ffffffffffffffffffffffffffffffffffffffff168152602001908152602001600020600101819055507f389bc8f710c058e5d0507e8bd7a82953376bea3c5d11fddd2b31144904c5fc09338486604051611207939291906114b1565b60405180910390a15050505050565b600260009054906101000a900473ffffffffffffffffffffffffffffffffffffffff1681565b60008135905061124b8161190a565b92915050565b60008151905061126081611921565b92915050565b60008135905061127581611938565b92915050565b60008135905061128a8161194f565b92915050565b6000602082840312156112a257600080fd5b60006112b084828501611251565b91505092915050565b6000602082840312156112cb57600080fd5b60006112d984828501611266565b91505092915050565b6000602082840312156112f457600080fd5b60006113028482850161127b565b91505092915050565b60008060006060848603121561132057600080fd5b600061132e8682870161127b565b935050602061133f8682870161123c565b92505060406113508682870161127b565b9150509250925092565b61136381611678565b82525050565b61137281611696565b82525050565b6000611385602f83611611565b91506113908261177f565b604082019050919050565b60006113a8603383611611565b91506113b3826117ce565b604082019050919050565b60006113cb603683611611565b91506113d68261181d565b604082019050919050565b60006113ee602383611611565b91506113f98261186c565b604082019050919050565b6000611411603c83611611565b915061141c826118bb565b604082019050919050565b611430816116c0565b82525050565b600060208201905061144b600083018461135a565b92915050565b6000606082019050611466600083018661135a565b611473602083018561135a565b6114806040830184611427565b949350505050565b600060408201905061149d600083018561135a565b6114aa6020830184611427565b9392505050565b60006060820190506114c6600083018661135a565b6114d36020830185611427565b6114e0604083018461135a565b949350505050565b60006060820190506114fd600083018661135a565b61150a6020830185611427565b6115176040830184611427565b949350505050565b60006020820190506115346000830184611369565b92915050565b6000602082019050818103600083015261155381611378565b9050919050565b600060208201905081810360008301526115738161139b565b9050919050565b60006020820190508181036000830152611593816113be565b9050919050565b600060208201905081810360008301526115b3816113e1565b9050919050565b600060208201905081810360008301526115d381611404565b9050919050565b60006060820190506115ef6000830186611427565b6115fc602083018561135a565b6116096040830184611427565b949350505050565b600082825260208201905092915050565b600061162d826116c0565b9150611638836116c0565b9250827fffffffffffffffffffffffffffffffffffffffffffffffffffffffffffffffff0382111561166d5761166c611750565b5b828201905092915050565b6000611683826116a0565b9050919050565b60008115159050919050565b6000819050919050565b600073ffffffffffffffffffffffffffffffffffffffff82169050919050565b6000819050919050565b600063ffffffff82169050919050565b60006116e5826116c0565b91507fffffffffffffffffffffffffffffffffffffffffffffffffffffffffffffffff82141561171857611717611750565b5b600182019050919050565b600061172e826116ca565b915063ffffffff82141561174557611744611750565b5b600182019050919050565b7f4e487b7100000000000000000000000000000000000000000000000000000000600052601160045260246000fd5b7f43616e6e6f7420766f7465206e6f772c20766f74696e672071756f72756d206860008201527f6173206265656e20726561636865640000000000000000000000000000000000602082015250565b7f53656e7420656e76656c6f706520646f6573206e6f7420636f72726573706f6e60008201527f6420746f20746865206f6e652063617374656400000000000000000000000000602082015250565b7f43616e6e6f74206f70656e20616e20656e76656c6f70652c20766f74696e672060008201527f71756f72756d206e6f7420726561636865642079657400000000000000000000602082015250565b7f5468652073656e64657220686173206e6f742063617374656420616e7920766f60008201527f7465730000000000000000000000000000000000000000000000000000000000602082015250565b7f43616e6e6f7420636865636b207468652077696e6e65722c206e65656420746f60008201527f206f70656e20616c6c207468652073656e7420656e76656c6f70657300000000602082015250565b61191381611678565b811461191e57600080fd5b50565b61192a8161168a565b811461193557600080fd5b50565b61194181611696565b811461194c57600080fd5b50565b611958816116c0565b811461196357600080fd5b5056fea264697066735822122083253820b6166ca9816cb31b3eb9026518e6fe6285d151b28716834c291bf6b464736f6c63430008010033",
  "immutableReferences": {},
  "source": "// SPDX-License-Identifier: MIT\n\npragma solidity 0.8.1;\n\nimport \"@openzeppelin/contracts/token/ERC20/ERC20.sol\";\nimport \"./SOULToken.sol\";\n\ncontract democraticElection {\n    \n    IERC20 private token;\n    // Structs, events, and modifiers\n    \n    // Store refund data\n    struct Refund {\n        uint soul;\n        address symbol;\n    }\n    \n    //Store voting for every candidate\n    struct Preference{\n        uint soul;\n        uint n_votes;\n    }\n    \n    // Data to manage the confirmation\n    struct Conditions {\n        uint32 quorum;\n        uint32 envelopes_casted;\n        uint32 envelopes_opened;\n    }\n    \n    event NewMayor(address _candidate, uint _totalSoul, uint _totalVotes);\n    event Sayonara(address _escrow, uint _totalSoul);\n    event EnvelopeCast(address _voter);\n    event EnvelopeOpen(address _voter, uint _soul, address _symbol);\n    \n    // Someone can vote as long as the quorum is not reached\n    modifier canVote() {\n        require(voting_condition.envelopes_casted < voting_condition.quorum, \"Cannot vote now, voting quorum has been reached\");\n        _;   \n    }\n    \n    // Envelopes can be opened only after receiving the quorum\n    modifier canOpen() {\n        require(voting_condition.envelopes_casted == voting_condition.quorum, \"Cannot open an envelope, voting quorum not reached yet\");\n        _;\n    }\n    \n    // The outcome of the confirmation can be computed as soon as all the casted envelopes have been opened\n    modifier canCheckOutcome() {\n        require(voting_condition.envelopes_opened == voting_condition.quorum, \"Cannot check the winner, need to open all the sent envelopes\");\n        _;\n    }\n    \n    // State attributes\n    \n    // Initialization variables\n    address[] public candidates;\n    address public escrow;\n    \n    // Voting phase variables\n    mapping(address => bytes32) envelopes;\n\n    Conditions voting_condition;\n    Refund refund;\n    Preference preference;\n\n    //Souls associated with the candidates\n    mapping(address => Preference) preferenceCandidates;\n    \n    // Refund phase variables\n    mapping(address => Refund) souls;\n    address[] voters;\n\n    /// @notice The constructor only initializes internal variables\n    /// @param _candidates (address[]) The addresses of the mayor candidates\n    /// @param _escrow (address) The address of the escrow account\n    /// @param _quorum (uint32) The number of voters required to finalize the confirmation\n    constructor(address[] memory _candidates, address _escrow, uint32 _quorum, IERC20 _token) {\n        token = _token;\n        candidates = _candidates;\n        escrow = _escrow;\n        voting_condition = Conditions({quorum: _quorum, envelopes_casted: 0, envelopes_opened: 0});\n        for (uint i=0; i<candidates.length; i++){\n            preference = Preference({soul: 0, n_votes: 0});\n            address candidate = candidates[i];\n            preferenceCandidates[candidate] = preference;\n        }\n    }\n\n\n    /// @notice Store a received voting envelope\n    /// @param _envelope The envelope represented as the keccak256 hash of (sigil, symbol, soul) \n    function cast_envelope(bytes32 _envelope) canVote public {\n        \n        if(envelopes[msg.sender] == 0x0) // => NEW, update on 17/05/2021\n            voting_condition.envelopes_casted++;\n\n        envelopes[msg.sender] = _envelope;\n        emit EnvelopeCast(msg.sender);\n    }\n    \n    \n    /// @notice Open an envelope and store the vote information\n    /// @param _sigil (uint) The secret sigil of a voter\n    /// @param _symbol (address) The candidate preference\n    /// @dev The soul is sent as ERC-20 token \n    /// @dev Need to recompute the hash to validate the envelope previously casted\n    function open_envelope(uint _sigil, address _symbol, uint _souls) canOpen public{\n\n        \n        require(envelopes[msg.sender] != 0x0, \"The sender has not casted any votes\");\n        \n        bytes32 _casted_envelope = envelopes[msg.sender];\n        bytes32 _sent_envelope = compute_envelope(_sigil, _symbol, _souls);\n    \n        require(_casted_envelope == _sent_envelope, \"Sent envelope does not correspond to the one casted\");\n        envelopes[msg.sender] = 0x0; \n        voting_condition.envelopes_opened++;\n        \n        token.transferFrom(msg.sender, address(this), _souls);\n        \n        refund = Refund({soul: _souls, symbol: _symbol});\n        souls[msg.sender] = refund;\n        \n        voters.push(msg.sender);\n        \n        //Choose candidate based on the symbol (i.e. address)\n        preferenceCandidates[_symbol].soul = preferenceCandidates[_symbol].soul + _souls;\n        \n        preferenceCandidates[_symbol].n_votes = preferenceCandidates[_symbol].n_votes + 1;\n        \n        emit EnvelopeOpen(msg.sender, _souls, _symbol);\n    }\n    \n    \n    /// @notice Elect winning mayor. Refund the electors who voted for the losing outcome\n    function mayor_or_sayonara() canCheckOutcome public {\n        address bestCandidate;\n        address winningCandidate;\n        uint bestSoulsAmount = 0;\n        uint totalSoulsAmount = 0;\n        bool isTie = false;\n        \n        for (uint i=0; i < candidates.length; i++){\n            address candidate = candidates[i]; \n            totalSoulsAmount = totalSoulsAmount + preferenceCandidates[candidate].soul;\n            if(preferenceCandidates[candidate].soul > bestSoulsAmount){ //candidate i has more souls\n                bestCandidate = candidate; \n                bestSoulsAmount = preferenceCandidates[candidate].soul;\n            }\n            else{\n                if(preferenceCandidates[candidate].soul == bestSoulsAmount){ //in case of same amount of souls\n                    if(preferenceCandidates[candidate].n_votes > preferenceCandidates[bestCandidate].n_votes){ //check n_votes\n                        bestCandidate = candidates[i];\n                        isTie = false; //reset isTie flag\n                    }\n                    else{\n                        if(preferenceCandidates[candidate].n_votes == preferenceCandidates[bestCandidate].n_votes){\n                            isTie = true; //complete tie (both souls and votes)\n                        }\n                    }\n                }\n            }\n        }\n        \n        \n        if(!isTie){\n            //Candidate with the higher amount of souls has won\n            winningCandidate = bestCandidate;\n        \n            //Refunding losing voters\n            for(uint i=0; i < voters.length; i++){\n                address voterAddress = (voters[i]);\n                if(souls[voterAddress].symbol != winningCandidate){\n                    uint refundedSouls = souls[voterAddress].soul;\n                    souls[voterAddress].soul = 0;\n                    token.transfer(voterAddress, refundedSouls);\n                }\n                else{\n                    token.transfer(winningCandidate, souls[voterAddress].soul);\n                }\n            }\n            emit NewMayor(winningCandidate, preferenceCandidates[winningCandidate].soul, preferenceCandidates[winningCandidate].n_votes);\n        }\n        else{\n            token.transfer(escrow, totalSoulsAmount);\n            emit Sayonara(escrow, totalSoulsAmount);\n        }\n    }\n \n \n    /// @notice Compute a voting envelope\n    /// @param _sigil (uint) The secret sigil of a voter\n    /// @param _symbol (address) The voting preference\n    /// @param _soul (uint) The soul associated to the vote\n    function compute_envelope(uint _sigil, address _symbol, uint _soul) public pure returns(bytes32) {\n        return keccak256(abi.encode(_sigil, _symbol, _soul));\n    }\n    \n}\n",
  "sourcePath": "/home/luca/p2p_proj/contracts/democraticElection.sol",
  "compiler": {
    "name": "solc",
    "version": "0.8.1+commit.df193b15.Emscripten.clang"
  },
  "schemaVersion": "3.4.1",
  "updatedAt": "2021-06-25T13:37:28.996Z",
  "devdoc": {
    "kind": "dev",
    "methods": {
      "cast_envelope(bytes32)": {
        "params": {
          "_envelope": "The envelope represented as the keccak256 hash of (sigil, symbol, soul) "
        }
      },
      "compute_envelope(uint256,address,uint256)": {
        "params": {
          "_sigil": "(uint) The secret sigil of a voter",
          "_soul": "(uint) The soul associated to the vote",
          "_symbol": "(address) The voting preference"
        }
      },
      "constructor": {
        "params": {
          "_candidates": "(address[]) The addresses of the mayor candidates",
          "_escrow": "(address) The address of the escrow account",
          "_quorum": "(uint32) The number of voters required to finalize the confirmation"
        }
      },
      "open_envelope(uint256,address,uint256)": {
        "details": "The soul is sent as ERC-20 token Need to recompute the hash to validate the envelope previously casted",
        "params": {
          "_sigil": "(uint) The secret sigil of a voter",
          "_symbol": "(address) The candidate preference"
        }
      }
    },
    "version": 1
  },
  "userdoc": {
    "kind": "user",
    "methods": {
      "cast_envelope(bytes32)": {
        "notice": "Store a received voting envelope"
      },
      "compute_envelope(uint256,address,uint256)": {
        "notice": "Compute a voting envelope"
      },
      "constructor": {
        "notice": "The constructor only initializes internal variables"
      },
      "mayor_or_sayonara()": {
        "notice": "Elect winning mayor. Refund the electors who voted for the losing outcome"
      },
      "open_envelope(uint256,address,uint256)": {
        "notice": "Open an envelope and store the vote information"
      }
    },
    "version": 1
  }
}