{
  "contractName": "Mayor",
  "abi": [
    {
      "inputs": [
        {
          "internalType": "address payable",
          "name": "_candidate",
          "type": "address"
        },
        {
          "internalType": "address payable",
          "name": "_escrow",
          "type": "address"
        },
        {
          "internalType": "uint32",
          "name": "_quorum",
          "type": "uint32"
        }
      ],
      "stateMutability": "nonpayable",
      "type": "constructor"
    },
    {
      "anonymous": false,
      "inputs": [
        {
          "indexed": false,
          "internalType": "address",
          "name": "_voter",
          "type": "address"
        }
      ],
      "name": "EnvelopeCast",
      "type": "event"
    },
    {
      "anonymous": false,
      "inputs": [
        {
          "indexed": false,
          "internalType": "address",
          "name": "_voter",
          "type": "address"
        },
        {
          "indexed": false,
          "internalType": "uint256",
          "name": "_soul",
          "type": "uint256"
        },
        {
          "indexed": false,
          "internalType": "bool",
          "name": "_doblon",
          "type": "bool"
        }
      ],
      "name": "EnvelopeOpen",
      "type": "event"
    },
    {
      "anonymous": false,
      "inputs": [
        {
          "indexed": false,
          "internalType": "address",
          "name": "_candidate",
          "type": "address"
        }
      ],
      "name": "NewMayor",
      "type": "event"
    },
    {
      "anonymous": false,
      "inputs": [
        {
          "indexed": false,
          "internalType": "address",
          "name": "_escrow",
          "type": "address"
        }
      ],
      "name": "Sayonara",
      "type": "event"
    },
    {
      "inputs": [],
      "name": "candidate",
      "outputs": [
        {
          "internalType": "address payable",
          "name": "",
          "type": "address"
        }
      ],
      "stateMutability": "view",
      "type": "function"
    },
    {
      "inputs": [],
      "name": "escrow",
      "outputs": [
        {
          "internalType": "address payable",
          "name": "",
          "type": "address"
        }
      ],
      "stateMutability": "view",
      "type": "function"
    },
    {
      "inputs": [],
      "name": "naySoul",
      "outputs": [
        {
          "internalType": "uint256",
          "name": "",
          "type": "uint256"
        }
      ],
      "stateMutability": "view",
      "type": "function"
    },
    {
      "inputs": [],
      "name": "yaySoul",
      "outputs": [
        {
          "internalType": "uint256",
          "name": "",
          "type": "uint256"
        }
      ],
      "stateMutability": "view",
      "type": "function"
    },
    {
      "inputs": [
        {
          "internalType": "bytes32",
          "name": "_envelope",
          "type": "bytes32"
        }
      ],
      "name": "cast_envelope",
      "outputs": [],
      "stateMutability": "nonpayable",
      "type": "function"
    },
    {
      "inputs": [
        {
          "internalType": "uint256",
          "name": "_sigil",
          "type": "uint256"
        },
        {
          "internalType": "bool",
          "name": "_doblon",
          "type": "bool"
        }
      ],
      "name": "open_envelope",
      "outputs": [],
      "stateMutability": "payable",
      "type": "function"
    },
    {
      "inputs": [],
      "name": "mayor_or_sayonara",
      "outputs": [],
      "stateMutability": "nonpayable",
      "type": "function"
    },
    {
      "inputs": [
        {
          "internalType": "uint256",
          "name": "_sigil",
          "type": "uint256"
        },
        {
          "internalType": "bool",
          "name": "_doblon",
          "type": "bool"
        },
        {
          "internalType": "uint256",
          "name": "_soul",
          "type": "uint256"
        }
      ],
      "name": "compute_envelope",
      "outputs": [
        {
          "internalType": "bytes32",
          "name": "",
          "type": "bytes32"
        }
      ],
      "stateMutability": "pure",
      "type": "function"
    }
  ],
  "bytecode": "0x60806040523480156200001157600080fd5b506040516200177438038062001774833981810160405281019062000037919062000198565b826000806101000a81548173ffffffffffffffffffffffffffffffffffffffff021916908373ffffffffffffffffffffffffffffffffffffffff16021790555081600160006101000a81548173ffffffffffffffffffffffffffffffffffffffff021916908373ffffffffffffffffffffffffffffffffffffffff16021790555060405180606001604052808263ffffffff168152602001600063ffffffff168152602001600063ffffffff16815250600360008201518160000160006101000a81548163ffffffff021916908363ffffffff16021790555060208201518160000160046101000a81548163ffffffff021916908363ffffffff16021790555060408201518160000160086101000a81548163ffffffff021916908363ffffffff16021790555090505050505062000266565b6000815190506200017b8162000232565b92915050565b60008151905062000192816200024c565b92915050565b600080600060608486031215620001ae57600080fd5b6000620001be868287016200016a565b9350506020620001d1868287016200016a565b9250506040620001e48682870162000181565b9150509250925092565b6000620001fb8262000202565b9050919050565b600073ffffffffffffffffffffffffffffffffffffffff82169050919050565b600063ffffffff82169050919050565b6200023d81620001ee565b81146200024957600080fd5b50565b620002578162000222565b81146200026357600080fd5b50565b6114fe80620002766000396000f3fe60806040526004361061007b5760003560e01c80636c8381f81161004e5780636c8381f81461012857806378194cc6146101535780637a0550d01461017e578063e2fdcc171461019a5761007b565b806305698612146100805780631acecb50146100975780631c9a34e3146100c25780634979a402146100eb575b600080fd5b34801561008c57600080fd5b506100956101c5565b005b3480156100a357600080fd5b506100ac6107e3565b6040516100b991906110f0565b60405180910390f35b3480156100ce57600080fd5b506100e960048036038101906100e49190610df0565b6107e9565b005b3480156100f757600080fd5b50610112600480360381019061010d9190610e55565b61096e565b60405161011f9190611035565b60405180910390f35b34801561013457600080fd5b5061013d6109a4565b60405161014a9190610fe3565b60405180910390f35b34801561015f57600080fd5b506101686109c8565b60405161017591906110f0565b60405180910390f35b61019860048036038101906101939190610e19565b6109ce565b005b3480156101a657600080fd5b506101af610d8b565b6040516101bc9190610fe3565b60405180910390f35b600360000160009054906101000a900463ffffffff1663ffffffff16600360000160089054906101000a900463ffffffff1663ffffffff161461023d576040517f08c379a0000000000000000000000000000000000000000000000000000000008152600401610234906110d0565b60405180910390fd5b60065460075411156105155760005b6009805490508110156104b857600060098281548110610295577f4e487b7100000000000000000000000000000000000000000000000000000000600052603260045260246000fd5b9060005260206000200160009054906101000a900473ffffffffffffffffffffffffffffffffffffffff16905060001515600860008373ffffffffffffffffffffffffffffffffffffffff1673ffffffffffffffffffffffffffffffffffffffff16815260200190815260200160002060010160009054906101000a900460ff16151514156103fa576000600860008373ffffffffffffffffffffffffffffffffffffffff1673ffffffffffffffffffffffffffffffffffffffff1681526020019081526020016000206000015490506000600860008473ffffffffffffffffffffffffffffffffffffffff1673ffffffffffffffffffffffffffffffffffffffff168152602001908152602001600020600001819055508173ffffffffffffffffffffffffffffffffffffffff166108fc829081150290604051600060405180830381858888f193505050501580156103f3573d6000803e3d6000fd5b50506104a4565b60008054906101000a900473ffffffffffffffffffffffffffffffffffffffff1673ffffffffffffffffffffffffffffffffffffffff166108fc600860008473ffffffffffffffffffffffffffffffffffffffff1673ffffffffffffffffffffffffffffffffffffffff168152602001908152602001600020600001549081150290604051600060405180830381858888f193505050501580156104a2573d6000803e3d6000fd5b505b5080806104b090611253565b91505061024c565b507f871e83b983a039f59e0f4c08b833ff72e17dcba70607314804f13146995a8f7660008054906101000a900473ffffffffffffffffffffffffffffffffffffffff166040516105089190610fc8565b60405180910390a16107e1565b60005b60098054905081101561078657600060098281548110610561577f4e487b7100000000000000000000000000000000000000000000000000000000600052603260045260246000fd5b9060005260206000200160009054906101000a900473ffffffffffffffffffffffffffffffffffffffff16905060011515600860008373ffffffffffffffffffffffffffffffffffffffff1673ffffffffffffffffffffffffffffffffffffffff16815260200190815260200160002060010160009054906101000a900460ff16151514156106c6576000600860008373ffffffffffffffffffffffffffffffffffffffff1673ffffffffffffffffffffffffffffffffffffffff1681526020019081526020016000206000015490506000600860008473ffffffffffffffffffffffffffffffffffffffff1673ffffffffffffffffffffffffffffffffffffffff168152602001908152602001600020600001819055508173ffffffffffffffffffffffffffffffffffffffff166108fc829081150290604051600060405180830381858888f193505050501580156106bf573d6000803e3d6000fd5b5050610772565b600160009054906101000a900473ffffffffffffffffffffffffffffffffffffffff1673ffffffffffffffffffffffffffffffffffffffff166108fc600860008473ffffffffffffffffffffffffffffffffffffffff1673ffffffffffffffffffffffffffffffffffffffff168152602001908152602001600020600001549081150290604051600060405180830381858888f19350505050158015610770573d6000803e3d6000fd5b505b50808061077e90611253565b915050610518565b507fa1134e3746de254ae26240f518fc8ba38299f6dcf7399d77c8a117857b1c46c5600160009054906101000a900473ffffffffffffffffffffffffffffffffffffffff166040516107d89190610fc8565b60405180910390a15b565b60075481565b600360000160009054906101000a900463ffffffff1663ffffffff16600360000160049054906101000a900463ffffffff1663ffffffff1610610861576040517f08c379a000000000000000000000000000000000000000000000000000000000815260040161085890611050565b60405180910390fd5b6000801b600260003373ffffffffffffffffffffffffffffffffffffffff1673ffffffffffffffffffffffffffffffffffffffff1681526020019081526020016000205414156108f0576003600001600481819054906101000a900463ffffffff16809291906108d09061129c565b91906101000a81548163ffffffff021916908363ffffffff160217905550505b80600260003373ffffffffffffffffffffffffffffffffffffffff1673ffffffffffffffffffffffffffffffffffffffff168152602001908152602001600020819055507f8033de21ae72f21fa8773c90e60e7a5188cb8e44b97f487a5c362a491882ae34336040516109639190610fad565b60405180910390a150565b60008383836040516020016109859392919061110b565b6040516020818303038152906040528051906020012090509392505050565b60008054906101000a900473ffffffffffffffffffffffffffffffffffffffff1681565b60065481565b600360000160009054906101000a900463ffffffff1663ffffffff16600360000160049054906101000a900463ffffffff1663ffffffff1614610a46576040517f08c379a0000000000000000000000000000000000000000000000000000000008152600401610a3d90611090565b60405180910390fd5b6000801b600260003373ffffffffffffffffffffffffffffffffffffffff1673ffffffffffffffffffffffffffffffffffffffff168152602001908152602001600020541415610acb576040517f08c379a0000000000000000000000000000000000000000000000000000000008152600401610ac2906110b0565b60405180910390fd5b6000600260003373ffffffffffffffffffffffffffffffffffffffff1673ffffffffffffffffffffffffffffffffffffffff1681526020019081526020016000205490506000610b1c84843461096e565b9050808214610b60576040517f08c379a0000000000000000000000000000000000000000000000000000000008152600401610b5790611070565b60405180910390fd5b6000801b600260003373ffffffffffffffffffffffffffffffffffffffff1673ffffffffffffffffffffffffffffffffffffffff168152602001908152602001600020819055506003600001600881819054906101000a900463ffffffff1680929190610bcc9061129c565b91906101000a81548163ffffffff021916908363ffffffff16021790555050604051806040016040528034815260200184151581525060046000820151816000015560208201518160010160006101000a81548160ff0219169083151502179055509050506004600860003373ffffffffffffffffffffffffffffffffffffffff1673ffffffffffffffffffffffffffffffffffffffff168152602001908152602001600020600082015481600001556001820160009054906101000a900460ff168160010160006101000a81548160ff0219169083151502179055509050506009339080600181540180825580915050600190039060005260206000200160009091909190916101000a81548173ffffffffffffffffffffffffffffffffffffffff021916908373ffffffffffffffffffffffffffffffffffffffff160217905550600115158315151415610d355734600754610d2a9190611153565b600781905550610d4a565b34600654610d439190611153565b6006819055505b7f71259ee777d4ad2ca5adf062fff9cf0b1a14a6f834e8e8011fc946715720006f333485604051610d7d93929190610ffe565b60405180910390a150505050565b600160009054906101000a900473ffffffffffffffffffffffffffffffffffffffff1681565b600081359050610dc081611483565b92915050565b600081359050610dd58161149a565b92915050565b600081359050610dea816114b1565b92915050565b600060208284031215610e0257600080fd5b6000610e1084828501610dc6565b91505092915050565b60008060408385031215610e2c57600080fd5b6000610e3a85828601610ddb565b9250506020610e4b85828601610db1565b9150509250929050565b600080600060608486031215610e6a57600080fd5b6000610e7886828701610ddb565b9350506020610e8986828701610db1565b9250506040610e9a86828701610ddb565b9150509250925092565b610ead8161121d565b82525050565b610ebc816111bb565b82525050565b610ecb816111a9565b82525050565b610eda816111cd565b82525050565b610ee9816111d9565b82525050565b6000610efc602f83611142565b9150610f07826112f8565b604082019050919050565b6000610f1f603383611142565b9150610f2a82611347565b604082019050919050565b6000610f42603683611142565b9150610f4d82611396565b604082019050919050565b6000610f65602383611142565b9150610f70826113e5565b604082019050919050565b6000610f88603c83611142565b9150610f9382611434565b604082019050919050565b610fa781611203565b82525050565b6000602082019050610fc26000830184610ec2565b92915050565b6000602082019050610fdd6000830184610ea4565b92915050565b6000602082019050610ff86000830184610eb3565b92915050565b60006060820190506110136000830186610ec2565b6110206020830185610f9e565b61102d6040830184610ed1565b949350505050565b600060208201905061104a6000830184610ee0565b92915050565b6000602082019050818103600083015261106981610eef565b9050919050565b6000602082019050818103600083015261108981610f12565b9050919050565b600060208201905081810360008301526110a981610f35565b9050919050565b600060208201905081810360008301526110c981610f58565b9050919050565b600060208201905081810360008301526110e981610f7b565b9050919050565b60006020820190506111056000830184610f9e565b92915050565b60006060820190506111206000830186610f9e565b61112d6020830185610ed1565b61113a6040830184610f9e565b949350505050565b600082825260208201905092915050565b600061115e82611203565b915061116983611203565b9250827fffffffffffffffffffffffffffffffffffffffffffffffffffffffffffffffff0382111561119e5761119d6112c9565b5b828201905092915050565b60006111b4826111e3565b9050919050565b60006111c6826111e3565b9050919050565b60008115159050919050565b6000819050919050565b600073ffffffffffffffffffffffffffffffffffffffff82169050919050565b6000819050919050565b600063ffffffff82169050919050565b60006112288261122f565b9050919050565b600061123a82611241565b9050919050565b600061124c826111e3565b9050919050565b600061125e82611203565b91507fffffffffffffffffffffffffffffffffffffffffffffffffffffffffffffffff821415611291576112906112c9565b5b600182019050919050565b60006112a78261120d565b915063ffffffff8214156112be576112bd6112c9565b5b600182019050919050565b7f4e487b7100000000000000000000000000000000000000000000000000000000600052601160045260246000fd5b7f43616e6e6f7420766f7465206e6f772c20766f74696e672071756f72756d206860008201527f6173206265656e20726561636865640000000000000000000000000000000000602082015250565b7f53656e7420656e76656c6f706520646f6573206e6f7420636f72726573706f6e60008201527f6420746f20746865206f6e652063617374656400000000000000000000000000602082015250565b7f43616e6e6f74206f70656e20616e20656e76656c6f70652c20766f74696e672060008201527f71756f72756d206e6f7420726561636865642079657400000000000000000000602082015250565b7f5468652073656e64657220686173206e6f742063617374656420616e7920766f60008201527f7465730000000000000000000000000000000000000000000000000000000000602082015250565b7f43616e6e6f7420636865636b207468652077696e6e65722c206e65656420746f60008201527f206f70656e20616c6c207468652073656e7420656e76656c6f70657300000000602082015250565b61148c816111cd565b811461149757600080fd5b50565b6114a3816111d9565b81146114ae57600080fd5b50565b6114ba81611203565b81146114c557600080fd5b5056fea264697066735822122027e274d5853e98e8ee4e7d428904ec2fbe57e6822efcda71b23b21ff161444f464736f6c63430008010033",
  "immutableReferences": {},
  "source": "/*LUCA SANTARELLA MAT:546987 01/06/2021*/\n\npragma solidity 0.8.1;\n\ncontract Mayor {\n    \n    // Structs, events, and modifiers\n    \n    // Store refund data\n    struct Refund {\n        uint soul;\n        bool doblon;\n    }\n    \n    // Data to manage the confirmation\n    struct Conditions {\n        uint32 quorum;\n        uint32 envelopes_casted;\n        uint32 envelopes_opened;\n    }\n    \n    event NewMayor(address _candidate);\n    event Sayonara(address _escrow);\n    event EnvelopeCast(address _voter);\n    event EnvelopeOpen(address _voter, uint _soul, bool _doblon);\n    \n    // Someone can vote as long as the quorum is not reached\n    modifier canVote() {\n        require(voting_condition.envelopes_casted < voting_condition.quorum, \"Cannot vote now, voting quorum has been reached\");\n        _;   \n    }\n    \n    // Envelopes can be opened only after receiving the quorum\n    modifier canOpen() {\n        require(voting_condition.envelopes_casted == voting_condition.quorum, \"Cannot open an envelope, voting quorum not reached yet\");\n        _;\n    }\n    \n    // The outcome of the confirmation can be computed as soon as all the casted envelopes have been opened\n    modifier canCheckOutcome() {\n        require(voting_condition.envelopes_opened == voting_condition.quorum, \"Cannot check the winner, need to open all the sent envelopes\");\n        _;\n    }\n    \n    // State attributes\n    \n    // Initialization variables\n    address payable public candidate;\n    address payable public escrow;\n    \n    // Voting phase variables\n    mapping(address => bytes32) envelopes;\n\n    Conditions voting_condition;\n    Refund refund;\n\n    uint public naySoul;\n    uint public yaySoul;\n\n    // Refund phase variables\n    mapping(address => Refund) souls;\n    address[] voters;\n\n    /// @notice The constructor only initializes internal variables\n    /// @param _candidate (address) The address of the mayor candidate\n    /// @param _escrow (address) The address of the escrow account\n    /// @param _quorum (address) The number of voters required to finalize the confirmation\n    constructor(address payable _candidate, address payable _escrow, uint32 _quorum) public {\n        candidate = _candidate;\n        escrow = _escrow;\n        voting_condition = Conditions({quorum: _quorum, envelopes_casted: 0, envelopes_opened: 0});\n    }\n\n\n    /// @notice Store a received voting envelope\n    /// @param _envelope The envelope represented as the keccak256 hash of (sigil, doblon, soul) \n    function cast_envelope(bytes32 _envelope) canVote public {\n        \n        if(envelopes[msg.sender] == 0x0) // => NEW, update on 17/05/2021\n            voting_condition.envelopes_casted++;\n\n        envelopes[msg.sender] = _envelope;\n        emit EnvelopeCast(msg.sender);\n    }\n    \n    \n    /// @notice Open an envelope and store the vote information\n    /// @param _sigil (uint) The secret sigil of a voter\n    /// @param _doblon (bool) The voting preference\n    /// @dev The soul is sent as crypto\n    /// @dev Need to recompute the hash to validate the envelope previously casted\n    function open_envelope(uint _sigil, bool _doblon) canOpen public payable {\n\n        \n        require(envelopes[msg.sender] != 0x0, \"The sender has not casted any votes\");\n        \n        bytes32 _casted_envelope = envelopes[msg.sender];\n        bytes32 _sent_envelope = compute_envelope(_sigil, _doblon, msg.value);\n    \n        require(_casted_envelope == _sent_envelope, \"Sent envelope does not correspond to the one casted\");\n        envelopes[msg.sender] = 0x0; \n        voting_condition.envelopes_opened++;\n        \n        \n        refund = Refund({soul: msg.value, doblon: _doblon});\n        souls[msg.sender] = refund;\n        \n        voters.push(msg.sender);\n        \n        if(_doblon == true)\n            yaySoul = yaySoul + msg.value;\n        else\n            naySoul = naySoul + msg.value;\n        emit EnvelopeOpen(msg.sender, msg.value, _doblon);\n    }\n    \n    \n    /// @notice Either confirm or kick out the candidate. Refund the electors who voted for the losing outcome\n    function mayor_or_sayonara() canCheckOutcome public {\n        \n        if(yaySoul > naySoul){ // the mayor has been confirmed\n            for (uint i=0; i < voters.length; i++){\n                address payable voterAddress = payable(voters[i]);\n                if(souls[voterAddress].doblon == false){\n                    uint refundedSouls = souls[voterAddress].soul;\n                    souls[voterAddress].soul = 0;\n                    voterAddress.transfer(refundedSouls);\n                }\n                else{\n                    candidate.transfer(souls[voterAddress].soul);\n                }\n            }\n            emit NewMayor(candidate);\n        }\n        \n        else{\n            for (uint i=0; i < voters.length; i++){\n                address payable voterAddress = payable(voters[i]);\n                if(souls[voterAddress].doblon == true){\n                    uint refundedSouls = souls[voterAddress].soul;\n                    souls[voterAddress].soul = 0;\n                    voterAddress.transfer(refundedSouls);\n                }\n                else{\n                    escrow.transfer(souls[voterAddress].soul);\n                }\n            }\n            emit Sayonara(escrow);\n        }     \n    }\n \n \n    /// @notice Compute a voting envelope\n    /// @param _sigil (uint) The secret sigil of a voter\n    /// @param _doblon (bool) The voting preference\n    /// @param _soul (uint) The soul associated to the vote\n    function compute_envelope(uint _sigil, bool _doblon, uint _soul) public pure returns(bytes32) {\n        return keccak256(abi.encode(_sigil, _doblon, _soul));\n    }\n    \n}\n",
  "sourcePath": "/home/luca/p2p_proj/contracts/democraticElection.sol",
  "compiler": {
    "name": "solc",
    "version": "0.8.1+commit.df193b15.Emscripten.clang"
  },
  "schemaVersion": "3.4.1",
  "updatedAt": "2021-06-09T14:46:55.741Z",
  "devdoc": {
    "kind": "dev",
    "methods": {
      "cast_envelope(bytes32)": {
        "params": {
          "_envelope": "The envelope represented as the keccak256 hash of (sigil, doblon, soul) "
        }
      },
      "compute_envelope(uint256,bool,uint256)": {
        "params": {
          "_doblon": "(bool) The voting preference",
          "_sigil": "(uint) The secret sigil of a voter",
          "_soul": "(uint) The soul associated to the vote"
        }
      },
      "constructor": {
        "params": {
          "_candidate": "(address) The address of the mayor candidate",
          "_escrow": "(address) The address of the escrow account",
          "_quorum": "(address) The number of voters required to finalize the confirmation"
        }
      },
      "open_envelope(uint256,bool)": {
        "details": "The soul is sent as cryptoNeed to recompute the hash to validate the envelope previously casted",
        "params": {
          "_doblon": "(bool) The voting preference",
          "_sigil": "(uint) The secret sigil of a voter"
        }
      }
    },
    "version": 1
  },
  "userdoc": {
    "kind": "user",
    "methods": {
      "cast_envelope(bytes32)": {
        "notice": "Store a received voting envelope"
      },
      "compute_envelope(uint256,bool,uint256)": {
        "notice": "Compute a voting envelope"
      },
      "constructor": {
        "notice": "The constructor only initializes internal variables"
      },
      "mayor_or_sayonara()": {
        "notice": "Either confirm or kick out the candidate. Refund the electors who voted for the losing outcome"
      },
      "open_envelope(uint256,bool)": {
        "notice": "Open an envelope and store the vote information"
      }
    },
    "version": 1
  }
}