{
  "contractName": "MyContract",
  "abi": [
    {
      "inputs": [],
      "stateMutability": "nonpayable",
      "type": "constructor"
    },
    {
      "anonymous": false,
      "inputs": [],
      "name": "click",
      "type": "event"
    },
    {
      "inputs": [],
      "name": "value",
      "outputs": [
        {
          "internalType": "uint256",
          "name": "",
          "type": "uint256"
        }
      ],
      "stateMutability": "view",
      "type": "function",
      "constant": true
    },
    {
      "inputs": [],
      "name": "pressClick",
      "outputs": [],
      "stateMutability": "nonpayable",
      "type": "function"
    }
  ],
  "bytecode": "0x608060405234801561001057600080fd5b50602a60008190555060f3806100276000396000f3fe6080604052348015600f57600080fd5b506004361060325760003560e01c80633fa4f245146037578063fcd85cf0146051575b600080fd5b603d6059565b60405160489190609a565b60405180910390f35b6057605f565b005b60005481565b7f7d55923d6614dd1bb0e0f31c0d68411fadec9357b52118ad41a43144861669e260405160405180910390a1565b60948160b3565b82525050565b600060208201905060ad6000830184608d565b92915050565b600081905091905056fea2646970667358221220b4aed39cf1f0b7e25b211efbf40e36a2acb9a70ee21a2c256bd3ec81ab13f8d164736f6c63430008010033",
  "immutableReferences": {},
  "source": "pragma solidity 0.8.1;\n\ncontract MyContract {\n\tuint public value;\n\tevent click();\n\n\tconstructor() public {\n\t\tvalue = 42;\n\t}\n\n\tfunction pressClick() public {\n\t\temit click();\n\t}\n}\n",
  "sourcePath": "/home/luca/p2p_proj/contracts/MyContract.sol",
  "compiler": {
    "name": "solc",
    "version": "0.8.1+commit.df193b15.Emscripten.clang"
  },
  "schemaVersion": "3.4.1",
  "updatedAt": "2021-06-16T13:43:04.516Z",
  "networkType": "ethereum",
  "devdoc": {
    "kind": "dev",
    "methods": {},
    "version": 1
  },
  "userdoc": {
    "kind": "user",
    "methods": {},
    "version": 1
  }
}