{
  "contractName": "SOULToken",
  "abi": [
    {
      "inputs": [
        {
          "internalType": "uint256",
          "name": "initialSupply",
          "type": "uint256"
        }
      ],
      "stateMutability": "nonpayable",
      "type": "constructor"
    },
    {
      "anonymous": false,
      "inputs": [
        {
          "indexed": true,
          "internalType": "address",
          "name": "owner",
          "type": "address"
        },
        {
          "indexed": true,
          "internalType": "address",
          "name": "spender",
          "type": "address"
        },
        {
          "indexed": false,
          "internalType": "uint256",
          "name": "value",
          "type": "uint256"
        }
      ],
      "name": "Approval",
      "type": "event"
    },
    {
      "anonymous": false,
      "inputs": [
        {
          "indexed": true,
          "internalType": "address",
          "name": "from",
          "type": "address"
        },
        {
          "indexed": true,
          "internalType": "address",
          "name": "to",
          "type": "address"
        },
        {
          "indexed": false,
          "internalType": "uint256",
          "name": "value",
          "type": "uint256"
        }
      ],
      "name": "Transfer",
      "type": "event"
    },
    {
      "anonymous": false,
      "inputs": [],
      "name": "votersFunded",
      "type": "event"
    },
    {
      "inputs": [
        {
          "internalType": "address",
          "name": "owner",
          "type": "address"
        },
        {
          "internalType": "address",
          "name": "spender",
          "type": "address"
        }
      ],
      "name": "allowance",
      "outputs": [
        {
          "internalType": "uint256",
          "name": "",
          "type": "uint256"
        }
      ],
      "stateMutability": "view",
      "type": "function"
    },
    {
      "inputs": [
        {
          "internalType": "address",
          "name": "spender",
          "type": "address"
        },
        {
          "internalType": "uint256",
          "name": "amount",
          "type": "uint256"
        }
      ],
      "name": "approve",
      "outputs": [
        {
          "internalType": "bool",
          "name": "",
          "type": "bool"
        }
      ],
      "stateMutability": "nonpayable",
      "type": "function"
    },
    {
      "inputs": [
        {
          "internalType": "address",
          "name": "account",
          "type": "address"
        }
      ],
      "name": "balanceOf",
      "outputs": [
        {
          "internalType": "uint256",
          "name": "",
          "type": "uint256"
        }
      ],
      "stateMutability": "view",
      "type": "function"
    },
    {
      "inputs": [],
      "name": "decimals",
      "outputs": [
        {
          "internalType": "uint8",
          "name": "",
          "type": "uint8"
        }
      ],
      "stateMutability": "view",
      "type": "function"
    },
    {
      "inputs": [
        {
          "internalType": "address",
          "name": "spender",
          "type": "address"
        },
        {
          "internalType": "uint256",
          "name": "subtractedValue",
          "type": "uint256"
        }
      ],
      "name": "decreaseAllowance",
      "outputs": [
        {
          "internalType": "bool",
          "name": "",
          "type": "bool"
        }
      ],
      "stateMutability": "nonpayable",
      "type": "function"
    },
    {
      "inputs": [
        {
          "internalType": "address",
          "name": "spender",
          "type": "address"
        },
        {
          "internalType": "uint256",
          "name": "addedValue",
          "type": "uint256"
        }
      ],
      "name": "increaseAllowance",
      "outputs": [
        {
          "internalType": "bool",
          "name": "",
          "type": "bool"
        }
      ],
      "stateMutability": "nonpayable",
      "type": "function"
    },
    {
      "inputs": [],
      "name": "name",
      "outputs": [
        {
          "internalType": "string",
          "name": "",
          "type": "string"
        }
      ],
      "stateMutability": "view",
      "type": "function"
    },
    {
      "inputs": [],
      "name": "symbol",
      "outputs": [
        {
          "internalType": "string",
          "name": "",
          "type": "string"
        }
      ],
      "stateMutability": "view",
      "type": "function"
    },
    {
      "inputs": [],
      "name": "totalSupply",
      "outputs": [
        {
          "internalType": "uint256",
          "name": "",
          "type": "uint256"
        }
      ],
      "stateMutability": "view",
      "type": "function"
    },
    {
      "inputs": [
        {
          "internalType": "address",
          "name": "recipient",
          "type": "address"
        },
        {
          "internalType": "uint256",
          "name": "amount",
          "type": "uint256"
        }
      ],
      "name": "transfer",
      "outputs": [
        {
          "internalType": "bool",
          "name": "",
          "type": "bool"
        }
      ],
      "stateMutability": "nonpayable",
      "type": "function"
    },
    {
      "inputs": [
        {
          "internalType": "address",
          "name": "sender",
          "type": "address"
        },
        {
          "internalType": "address",
          "name": "recipient",
          "type": "address"
        },
        {
          "internalType": "uint256",
          "name": "amount",
          "type": "uint256"
        }
      ],
      "name": "transferFrom",
      "outputs": [
        {
          "internalType": "bool",
          "name": "",
          "type": "bool"
        }
      ],
      "stateMutability": "nonpayable",
      "type": "function"
    },
    {
      "inputs": [
        {
          "internalType": "address[]",
          "name": "voters",
          "type": "address[]"
        }
      ],
      "name": "fundVoters",
      "outputs": [],
      "stateMutability": "nonpayable",
      "type": "function"
    }
  ],
  "bytecode": "0x60806040523480156200001157600080fd5b5060405162001c0338038062001c03833981810160405281019062000037919062000321565b6040518060400160405280600481526020017f536f756c000000000000000000000000000000000000000000000000000000008152506040518060400160405280600481526020017f534f554c000000000000000000000000000000000000000000000000000000008152508160039080519060200190620000bb9291906200025a565b508060049080519060200190620000d49291906200025a565b505050620000e93382620000f060201b60201c565b5062000513565b600073ffffffffffffffffffffffffffffffffffffffff168273ffffffffffffffffffffffffffffffffffffffff16141562000163576040517f08c379a00000000000000000000000000000000000000000000000000000000081526004016200015a9062000385565b60405180910390fd5b62000177600083836200025560201b60201c565b80600260008282546200018b9190620003d5565b92505081905550806000808473ffffffffffffffffffffffffffffffffffffffff1673ffffffffffffffffffffffffffffffffffffffff1681526020019081526020016000206000828254620001e29190620003d5565b925050819055508173ffffffffffffffffffffffffffffffffffffffff16600073ffffffffffffffffffffffffffffffffffffffff167fddf252ad1be2c89b69c2b068fc378daa952ba7f163c4a11628f55a4df523b3ef83604051620002499190620003a7565b60405180910390a35050565b505050565b82805462000268906200043c565b90600052602060002090601f0160209004810192826200028c5760008555620002d8565b82601f10620002a757805160ff1916838001178555620002d8565b82800160010185558215620002d8579182015b82811115620002d7578251825591602001919060010190620002ba565b5b509050620002e79190620002eb565b5090565b5b8082111562000306576000816000905550600101620002ec565b5090565b6000815190506200031b81620004f9565b92915050565b6000602082840312156200033457600080fd5b600062000344848285016200030a565b91505092915050565b60006200035c601f83620003c4565b91506200036982620004d0565b602082019050919050565b6200037f8162000432565b82525050565b60006020820190508181036000830152620003a0816200034d565b9050919050565b6000602082019050620003be600083018462000374565b92915050565b600082825260208201905092915050565b6000620003e28262000432565b9150620003ef8362000432565b9250827fffffffffffffffffffffffffffffffffffffffffffffffffffffffffffffffff0382111562000427576200042662000472565b5b828201905092915050565b6000819050919050565b600060028204905060018216806200045557607f821691505b602082108114156200046c576200046b620004a1565b5b50919050565b7f4e487b7100000000000000000000000000000000000000000000000000000000600052601160045260246000fd5b7f4e487b7100000000000000000000000000000000000000000000000000000000600052602260045260246000fd5b7f45524332303a206d696e7420746f20746865207a65726f206164647265737300600082015250565b620005048162000432565b81146200051057600080fd5b50565b6116e080620005236000396000f3fe608060405234801561001057600080fd5b50600436106100b45760003560e01c8063409679ae11610071578063409679ae146101a357806370a08231146101bf57806395d89b41146101ef578063a457c2d71461020d578063a9059cbb1461023d578063dd62ed3e1461026d576100b4565b806306fdde03146100b9578063095ea7b3146100d757806318160ddd1461010757806323b872dd14610125578063313ce567146101555780633950935114610173575b600080fd5b6100c161029d565b6040516100ce9190610ff2565b60405180910390f35b6100f160048036038101906100ec9190610dff565b61032f565b6040516100fe9190610fd7565b60405180910390f35b61010f61034d565b60405161011c91906110f4565b60405180910390f35b61013f600480360381019061013a9190610db0565b610357565b60405161014c9190610fd7565b60405180910390f35b61015d610458565b60405161016a919061110f565b60405180910390f35b61018d60048036038101906101889190610dff565b610461565b60405161019a9190610fd7565b60405180910390f35b6101bd60048036038101906101b89190610e3b565b61050d565b005b6101d960048036038101906101d49190610d4b565b6105c1565b6040516101e691906110f4565b60405180910390f35b6101f7610609565b6040516102049190610ff2565b60405180910390f35b61022760048036038101906102229190610dff565b61069b565b6040516102349190610fd7565b60405180910390f35b61025760048036038101906102529190610dff565b61078f565b6040516102649190610fd7565b60405180910390f35b61028760048036038101906102829190610d74565b6107ad565b60405161029491906110f4565b60405180910390f35b6060600380546102ac906112da565b80601f01602080910402602001604051908101604052809291908181526020018280546102d8906112da565b80156103255780601f106102fa57610100808354040283529160200191610325565b820191906000526020600020905b81548152906001019060200180831161030857829003601f168201915b5050505050905090565b600061034361033c610834565b848461083c565b6001905092915050565b6000600254905090565b6000610364848484610a07565b6000600160008673ffffffffffffffffffffffffffffffffffffffff1673ffffffffffffffffffffffffffffffffffffffff16815260200190815260200160002060006103af610834565b73ffffffffffffffffffffffffffffffffffffffff1673ffffffffffffffffffffffffffffffffffffffff1681526020019081526020016000205490508281101561042f576040517f08c379a000000000000000000000000000000000000000000000000000000000815260040161042690611074565b60405180910390fd5b61044c8561043b610834565b8584610447919061121e565b61083c565b60019150509392505050565b60006012905090565b600061050361046e610834565b84846001600061047c610834565b73ffffffffffffffffffffffffffffffffffffffff1673ffffffffffffffffffffffffffffffffffffffff16815260200190815260200160002060008873ffffffffffffffffffffffffffffffffffffffff1673ffffffffffffffffffffffffffffffffffffffff168152602001908152602001600020546104fe9190611197565b61083c565b6001905092915050565b6000815161051a336105c1565b61052491906111ed565b905060005b82518110156105905761057c83828151811061056e577f4e487b7100000000000000000000000000000000000000000000000000000000600052603260045260246000fd5b60200260200101518361078f565b5080806105889061133d565b915050610529565b507f6d35ef7b923862e5ab6d96720a4d0331d708dcc97fc355581aa461e6d7f4051b60405160405180910390a15050565b60008060008373ffffffffffffffffffffffffffffffffffffffff1673ffffffffffffffffffffffffffffffffffffffff168152602001908152602001600020549050919050565b606060048054610618906112da565b80601f0160208091040260200160405190810160405280929190818152602001828054610644906112da565b80156106915780601f1061066657610100808354040283529160200191610691565b820191906000526020600020905b81548152906001019060200180831161067457829003601f168201915b5050505050905090565b600080600160006106aa610834565b73ffffffffffffffffffffffffffffffffffffffff1673ffffffffffffffffffffffffffffffffffffffff16815260200190815260200160002060008573ffffffffffffffffffffffffffffffffffffffff1673ffffffffffffffffffffffffffffffffffffffff16815260200190815260200160002054905082811015610767576040517f08c379a000000000000000000000000000000000000000000000000000000000815260040161075e906110d4565b60405180910390fd5b610784610772610834565b85858461077f919061121e565b61083c565b600191505092915050565b60006107a361079c610834565b8484610a07565b6001905092915050565b6000600160008473ffffffffffffffffffffffffffffffffffffffff1673ffffffffffffffffffffffffffffffffffffffff16815260200190815260200160002060008373ffffffffffffffffffffffffffffffffffffffff1673ffffffffffffffffffffffffffffffffffffffff16815260200190815260200160002054905092915050565b600033905090565b600073ffffffffffffffffffffffffffffffffffffffff168373ffffffffffffffffffffffffffffffffffffffff1614156108ac576040517f08c379a00000000000000000000000000000000000000000000000000000000081526004016108a3906110b4565b60405180910390fd5b600073ffffffffffffffffffffffffffffffffffffffff168273ffffffffffffffffffffffffffffffffffffffff16141561091c576040517f08c379a000000000000000000000000000000000000000000000000000000000815260040161091390611034565b60405180910390fd5b80600160008573ffffffffffffffffffffffffffffffffffffffff1673ffffffffffffffffffffffffffffffffffffffff16815260200190815260200160002060008473ffffffffffffffffffffffffffffffffffffffff1673ffffffffffffffffffffffffffffffffffffffff168152602001908152602001600020819055508173ffffffffffffffffffffffffffffffffffffffff168373ffffffffffffffffffffffffffffffffffffffff167f8c5be1e5ebec7d5bd14f71427d1e84f3dd0314c0f7b2291e5b200ac8c7c3b925836040516109fa91906110f4565b60405180910390a3505050565b600073ffffffffffffffffffffffffffffffffffffffff168373ffffffffffffffffffffffffffffffffffffffff161415610a77576040517f08c379a0000000000000000000000000000000000000000000000000000000008152600401610a6e90611094565b60405180910390fd5b600073ffffffffffffffffffffffffffffffffffffffff168273ffffffffffffffffffffffffffffffffffffffff161415610ae7576040517f08c379a0000000000000000000000000000000000000000000000000000000008152600401610ade90611014565b60405180910390fd5b610af2838383610c86565b60008060008573ffffffffffffffffffffffffffffffffffffffff1673ffffffffffffffffffffffffffffffffffffffff16815260200190815260200160002054905081811015610b78576040517f08c379a0000000000000000000000000000000000000000000000000000000008152600401610b6f90611054565b60405180910390fd5b8181610b84919061121e565b6000808673ffffffffffffffffffffffffffffffffffffffff1673ffffffffffffffffffffffffffffffffffffffff16815260200190815260200160002081905550816000808573ffffffffffffffffffffffffffffffffffffffff1673ffffffffffffffffffffffffffffffffffffffff1681526020019081526020016000206000828254610c149190611197565b925050819055508273ffffffffffffffffffffffffffffffffffffffff168473ffffffffffffffffffffffffffffffffffffffff167fddf252ad1be2c89b69c2b068fc378daa952ba7f163c4a11628f55a4df523b3ef84604051610c7891906110f4565b60405180910390a350505050565b505050565b6000610c9e610c998461114f565b61112a565b90508083825260208201905082856020860282011115610cbd57600080fd5b60005b85811015610ced5781610cd38882610cf7565b845260208401935060208301925050600181019050610cc0565b5050509392505050565b600081359050610d068161167c565b92915050565b600082601f830112610d1d57600080fd5b8135610d2d848260208601610c8b565b91505092915050565b600081359050610d4581611693565b92915050565b600060208284031215610d5d57600080fd5b6000610d6b84828501610cf7565b91505092915050565b60008060408385031215610d8757600080fd5b6000610d9585828601610cf7565b9250506020610da685828601610cf7565b9150509250929050565b600080600060608486031215610dc557600080fd5b6000610dd386828701610cf7565b9350506020610de486828701610cf7565b9250506040610df586828701610d36565b9150509250925092565b60008060408385031215610e1257600080fd5b6000610e2085828601610cf7565b9250506020610e3185828601610d36565b9150509250929050565b600060208284031215610e4d57600080fd5b600082013567ffffffffffffffff811115610e6757600080fd5b610e7384828501610d0c565b91505092915050565b610e8581611264565b82525050565b6000610e968261117b565b610ea08185611186565b9350610eb08185602086016112a7565b610eb981611442565b840191505092915050565b6000610ed1602383611186565b9150610edc82611453565b604082019050919050565b6000610ef4602283611186565b9150610eff826114a2565b604082019050919050565b6000610f17602683611186565b9150610f22826114f1565b604082019050919050565b6000610f3a602883611186565b9150610f4582611540565b604082019050919050565b6000610f5d602583611186565b9150610f688261158f565b604082019050919050565b6000610f80602483611186565b9150610f8b826115de565b604082019050919050565b6000610fa3602583611186565b9150610fae8261162d565b604082019050919050565b610fc281611290565b82525050565b610fd18161129a565b82525050565b6000602082019050610fec6000830184610e7c565b92915050565b6000602082019050818103600083015261100c8184610e8b565b905092915050565b6000602082019050818103600083015261102d81610ec4565b9050919050565b6000602082019050818103600083015261104d81610ee7565b9050919050565b6000602082019050818103600083015261106d81610f0a565b9050919050565b6000602082019050818103600083015261108d81610f2d565b9050919050565b600060208201905081810360008301526110ad81610f50565b9050919050565b600060208201905081810360008301526110cd81610f73565b9050919050565b600060208201905081810360008301526110ed81610f96565b9050919050565b60006020820190506111096000830184610fb9565b92915050565b60006020820190506111246000830184610fc8565b92915050565b6000611134611145565b9050611140828261130c565b919050565b6000604051905090565b600067ffffffffffffffff82111561116a57611169611413565b5b602082029050602081019050919050565b600081519050919050565b600082825260208201905092915050565b60006111a282611290565b91506111ad83611290565b9250827fffffffffffffffffffffffffffffffffffffffffffffffffffffffffffffffff038211156111e2576111e1611386565b5b828201905092915050565b60006111f882611290565b915061120383611290565b925082611213576112126113b5565b5b828204905092915050565b600061122982611290565b915061123483611290565b92508282101561124757611246611386565b5b828203905092915050565b600061125d82611270565b9050919050565b60008115159050919050565b600073ffffffffffffffffffffffffffffffffffffffff82169050919050565b6000819050919050565b600060ff82169050919050565b60005b838110156112c55780820151818401526020810190506112aa565b838111156112d4576000848401525b50505050565b600060028204905060018216806112f257607f821691505b60208210811415611306576113056113e4565b5b50919050565b61131582611442565b810181811067ffffffffffffffff8211171561133457611333611413565b5b80604052505050565b600061134882611290565b91507fffffffffffffffffffffffffffffffffffffffffffffffffffffffffffffffff82141561137b5761137a611386565b5b600182019050919050565b7f4e487b7100000000000000000000000000000000000000000000000000000000600052601160045260246000fd5b7f4e487b7100000000000000000000000000000000000000000000000000000000600052601260045260246000fd5b7f4e487b7100000000000000000000000000000000000000000000000000000000600052602260045260246000fd5b7f4e487b7100000000000000000000000000000000000000000000000000000000600052604160045260246000fd5b6000601f19601f8301169050919050565b7f45524332303a207472616e7366657220746f20746865207a65726f206164647260008201527f6573730000000000000000000000000000000000000000000000000000000000602082015250565b7f45524332303a20617070726f766520746f20746865207a65726f20616464726560008201527f7373000000000000000000000000000000000000000000000000000000000000602082015250565b7f45524332303a207472616e7366657220616d6f756e742065786365656473206260008201527f616c616e63650000000000000000000000000000000000000000000000000000602082015250565b7f45524332303a207472616e7366657220616d6f756e742065786365656473206160008201527f6c6c6f77616e6365000000000000000000000000000000000000000000000000602082015250565b7f45524332303a207472616e736665722066726f6d20746865207a65726f20616460008201527f6472657373000000000000000000000000000000000000000000000000000000602082015250565b7f45524332303a20617070726f76652066726f6d20746865207a65726f2061646460008201527f7265737300000000000000000000000000000000000000000000000000000000602082015250565b7f45524332303a2064656372656173656420616c6c6f77616e63652062656c6f7760008201527f207a65726f000000000000000000000000000000000000000000000000000000602082015250565b61168581611252565b811461169057600080fd5b50565b61169c81611290565b81146116a757600080fd5b5056fea2646970667358221220b127c87b6d869118affe2c5c592c9b9fcf955c5c2df5f04356161784d697b1cc64736f6c63430008010033",
  "immutableReferences": {},
  "source": "// SPDX-License-Identifier: MIT \npragma solidity ^0.8.0;\n\nimport \"@openzeppelin/contracts/token/ERC20/ERC20.sol\";\n\ncontract SOULToken is ERC20{\n    \n    event votersFunded();\n    \n    constructor(uint256 initialSupply) ERC20(\"Soul\", \"SOUL\"){\n        _mint(msg.sender, initialSupply);\n    }\n    \n    function fundVoters(address[] memory voters) public{\n        uint fundedAmount = balanceOf(msg.sender) / voters.length;\n        for(uint i=0; i < voters.length; i++){\n            transfer(voters[i], fundedAmount);    \n        }\n        emit votersFunded();\n    }\n}\n",
  "sourcePath": "/home/luca/p2p_proj/contracts/SOULToken.sol",
  "compiler": {
    "name": "solc",
    "version": "0.8.1+commit.df193b15.Emscripten.clang"
  },
  "schemaVersion": "3.4.1",
  "updatedAt": "2021-06-20T22:32:17.692Z",
  "devdoc": {
    "kind": "dev",
    "methods": {
      "allowance(address,address)": {
        "details": "See {IERC20-allowance}."
      },
      "approve(address,uint256)": {
        "details": "See {IERC20-approve}. Requirements: - `spender` cannot be the zero address."
      },
      "balanceOf(address)": {
        "details": "See {IERC20-balanceOf}."
      },
      "decimals()": {
        "details": "Returns the number of decimals used to get its user representation. For example, if `decimals` equals `2`, a balance of `505` tokens should be displayed to a user as `5,05` (`505 / 10 ** 2`). Tokens usually opt for a value of 18, imitating the relationship between Ether and Wei. This is the value {ERC20} uses, unless this function is overridden; NOTE: This information is only used for _display_ purposes: it in no way affects any of the arithmetic of the contract, including {IERC20-balanceOf} and {IERC20-transfer}."
      },
      "decreaseAllowance(address,uint256)": {
        "details": "Atomically decreases the allowance granted to `spender` by the caller. This is an alternative to {approve} that can be used as a mitigation for problems described in {IERC20-approve}. Emits an {Approval} event indicating the updated allowance. Requirements: - `spender` cannot be the zero address. - `spender` must have allowance for the caller of at least `subtractedValue`."
      },
      "increaseAllowance(address,uint256)": {
        "details": "Atomically increases the allowance granted to `spender` by the caller. This is an alternative to {approve} that can be used as a mitigation for problems described in {IERC20-approve}. Emits an {Approval} event indicating the updated allowance. Requirements: - `spender` cannot be the zero address."
      },
      "name()": {
        "details": "Returns the name of the token."
      },
      "symbol()": {
        "details": "Returns the symbol of the token, usually a shorter version of the name."
      },
      "totalSupply()": {
        "details": "See {IERC20-totalSupply}."
      },
      "transfer(address,uint256)": {
        "details": "See {IERC20-transfer}. Requirements: - `recipient` cannot be the zero address. - the caller must have a balance of at least `amount`."
      },
      "transferFrom(address,address,uint256)": {
        "details": "See {IERC20-transferFrom}. Emits an {Approval} event indicating the updated allowance. This is not required by the EIP. See the note at the beginning of {ERC20}. Requirements: - `sender` and `recipient` cannot be the zero address. - `sender` must have a balance of at least `amount`. - the caller must have allowance for ``sender``'s tokens of at least `amount`."
      }
    },
    "version": 1
  },
  "userdoc": {
    "kind": "user",
    "methods": {},
    "version": 1
  }
}